{
  "_format": "hh-sol-artifact-1",
  "contractName": "Saving",
  "sourceName": "contracts/SavingContract.sol",
  "abi": [
    {
      "inputs": [
        {
          "internalType": "uint256",
          "name": "_initialSupply",
          "type": "uint256"
        }
      ],
      "stateMutability": "nonpayable",
      "type": "constructor"
    },
    {
      "anonymous": false,
      "inputs": [
        {
          "indexed": true,
          "internalType": "address",
          "name": "owner",
          "type": "address"
        },
        {
          "indexed": true,
          "internalType": "address",
          "name": "spender",
          "type": "address"
        },
        {
          "indexed": false,
          "internalType": "uint256",
          "name": "value",
          "type": "uint256"
        }
      ],
      "name": "Approval",
      "type": "event"
    },
    {
      "anonymous": false,
      "inputs": [
        {
          "indexed": true,
          "internalType": "address",
          "name": "user",
          "type": "address"
        },
        {
          "indexed": false,
          "internalType": "uint256",
          "name": "amount",
          "type": "uint256"
        }
      ],
      "name": "Save",
      "type": "event"
    },
    {
      "anonymous": false,
      "inputs": [
        {
          "indexed": true,
          "internalType": "address",
          "name": "from",
          "type": "address"
        },
        {
          "indexed": true,
          "internalType": "address",
          "name": "to",
          "type": "address"
        },
        {
          "indexed": false,
          "internalType": "uint256",
          "name": "value",
          "type": "uint256"
        }
      ],
      "name": "Transfer",
      "type": "event"
    },
    {
      "anonymous": false,
      "inputs": [
        {
          "indexed": true,
          "internalType": "address",
          "name": "user",
          "type": "address"
        },
        {
          "indexed": false,
          "internalType": "uint256",
          "name": "amount",
          "type": "uint256"
        }
      ],
      "name": "Withdraw",
      "type": "event"
    },
    {
      "inputs": [
        {
          "internalType": "address",
          "name": "_owner",
          "type": "address"
        },
        {
          "internalType": "address",
          "name": "spender",
          "type": "address"
        }
      ],
      "name": "allowance",
      "outputs": [
        {
          "internalType": "uint256",
          "name": "",
          "type": "uint256"
        }
      ],
      "stateMutability": "view",
      "type": "function"
    },
    {
      "inputs": [
        {
          "internalType": "address",
          "name": "spender",
          "type": "address"
        },
        {
          "internalType": "uint256",
          "name": "amount",
          "type": "uint256"
        }
      ],
      "name": "approve",
      "outputs": [
        {
          "internalType": "bool",
          "name": "",
          "type": "bool"
        }
      ],
      "stateMutability": "nonpayable",
      "type": "function"
    },
    {
      "inputs": [
        {
          "internalType": "address",
          "name": "account",
          "type": "address"
        }
      ],
      "name": "balanceOf",
      "outputs": [
        {
          "internalType": "uint256",
          "name": "",
          "type": "uint256"
        }
      ],
      "stateMutability": "view",
      "type": "function"
    },
    {
      "inputs": [
        {
          "internalType": "address",
          "name": "_user",
          "type": "address"
        }
      ],
      "name": "checkSavings",
      "outputs": [
        {
          "internalType": "uint256",
          "name": "",
          "type": "uint256"
        }
      ],
      "stateMutability": "view",
      "type": "function"
    },
    {
      "inputs": [],
      "name": "decimals",
      "outputs": [
        {
          "internalType": "uint8",
          "name": "",
          "type": "uint8"
        }
      ],
      "stateMutability": "view",
      "type": "function"
    },
    {
      "inputs": [],
      "name": "name",
      "outputs": [
        {
          "internalType": "string",
          "name": "",
          "type": "string"
        }
      ],
      "stateMutability": "view",
      "type": "function"
    },
    {
      "inputs": [
        {
          "internalType": "uint256",
          "name": "_amount",
          "type": "uint256"
        }
      ],
      "name": "saveToken",
      "outputs": [],
      "stateMutability": "nonpayable",
      "type": "function"
    },
    {
      "inputs": [],
      "name": "symbol",
      "outputs": [
        {
          "internalType": "string",
          "name": "",
          "type": "string"
        }
      ],
      "stateMutability": "view",
      "type": "function"
    },
    {
      "inputs": [],
      "name": "totalSupply",
      "outputs": [
        {
          "internalType": "uint256",
          "name": "",
          "type": "uint256"
        }
      ],
      "stateMutability": "view",
      "type": "function"
    },
    {
      "inputs": [
        {
          "internalType": "address",
          "name": "recipient",
          "type": "address"
        },
        {
          "internalType": "uint256",
          "name": "amount",
          "type": "uint256"
        }
      ],
      "name": "transfer",
      "outputs": [
        {
          "internalType": "bool",
          "name": "",
          "type": "bool"
        }
      ],
      "stateMutability": "nonpayable",
      "type": "function"
    },
    {
      "inputs": [
        {
          "internalType": "address",
          "name": "sender",
          "type": "address"
        },
        {
          "internalType": "address",
          "name": "recipient",
          "type": "address"
        },
        {
          "internalType": "uint256",
          "name": "amount",
          "type": "uint256"
        }
      ],
      "name": "transferFrom",
      "outputs": [
        {
          "internalType": "bool",
          "name": "",
          "type": "bool"
        }
      ],
      "stateMutability": "nonpayable",
      "type": "function"
    },
    {
      "inputs": [
        {
          "internalType": "address",
          "name": "",
          "type": "address"
        }
      ],
      "name": "userBalance",
      "outputs": [
        {
          "internalType": "uint256",
          "name": "",
          "type": "uint256"
        }
      ],
      "stateMutability": "view",
      "type": "function"
    },
    {
      "inputs": [
        {
          "internalType": "uint256",
          "name": "_amount",
          "type": "uint256"
        }
      ],
      "name": "withdraw",
      "outputs": [],
      "stateMutability": "nonpayable",
      "type": "function"
    }
  ],
  "bytecode": "0x608060405234801561001057600080fd5b50604051611ce5380380611ce5833981810160405281019061003291906102a0565b6000805461003f906102fc565b80601f016020809104026020016040519081016040528092919081815260200182805461006b906102fc565b80156100b85780601f1061008d576101008083540402835291602001916100b8565b820191906000526020600020905b81548152906001019060200180831161009b57829003601f168201915b5050505050600180546100ca906102fc565b80601f01602080910402602001604051908101604052809291908181526020018280546100f6906102fc565b80156101435780601f1061011857610100808354040283529160200191610143565b820191906000526020600020905b81548152906001019060200180831161012657829003601f168201915b5050505050600260009054906101000a900460ff168333600460006101000a81548173ffffffffffffffffffffffffffffffffffffffff021916908373ffffffffffffffffffffffffffffffffffffffff16021790555083600090816101a99190610513565b5082600190816101b99190610513565b5081600260006101000a81548160ff021916908360ff16021790555081600a6101e29190610754565b816101ed919061079f565b60038190555060035460056000600460009054906101000a900473ffffffffffffffffffffffffffffffffffffffff1673ffffffffffffffffffffffffffffffffffffffff1673ffffffffffffffffffffffffffffffffffffffff1681526020019081526020016000208190555050505050506107e1565b600080fd5b6000819050919050565b61027d8161026a565b811461028857600080fd5b50565b60008151905061029a81610274565b92915050565b6000602082840312156102b6576102b5610265565b5b60006102c48482850161028b565b91505092915050565b7f4e487b7100000000000000000000000000000000000000000000000000000000600052602260045260246000fd5b6000600282049050600182168061031457607f821691505b602082108103610327576103266102cd565b5b50919050565b600081519050919050565b7f4e487b7100000000000000000000000000000000000000000000000000000000600052604160045260246000fd5b60008190508160005260206000209050919050565b60006020601f8301049050919050565b600082821b905092915050565b6000600883026103c97fffffffffffffffffffffffffffffffffffffffffffffffffffffffffffffffff8261038c565b6103d3868361038c565b95508019841693508086168417925050509392505050565b6000819050919050565b600061041061040b6104068461026a565b6103eb565b61026a565b9050919050565b6000819050919050565b61042a836103f5565b61043e61043682610417565b848454610399565b825550505050565b600090565b610453610446565b61045e818484610421565b505050565b5b818110156104825761047760008261044b565b600181019050610464565b5050565b601f8211156104c75761049881610367565b6104a18461037c565b810160208510156104b0578190505b6104c46104bc8561037c565b830182610463565b50505b505050565b600082821c905092915050565b60006104ea600019846008026104cc565b1980831691505092915050565b600061050383836104d9565b9150826002028217905092915050565b61051c8261032d565b67ffffffffffffffff81111561053557610534610338565b5b61053f82546102fc565b61054a828285610486565b600060209050601f83116001811461057d576000841561056b578287015190505b61057585826104f7565b8655506105dd565b601f19841661058b86610367565b60005b828110156105b35784890151825560018201915060208501945060208101905061058e565b868310156105d057848901516105cc601f8916826104d9565b8355505b6001600288020188555050505b505050505050565b7f4e487b7100000000000000000000000000000000000000000000000000000000600052601160045260246000fd5b60008160011c9050919050565b6000808291508390505b600185111561066b57808604811115610647576106466105e5565b5b60018516156106565780820291505b808102905061066485610614565b945061062b565b94509492505050565b6000826106845760019050610740565b816106925760009050610740565b81600181146106a857600281146106b2576106e1565b6001915050610740565b60ff8411156106c4576106c36105e5565b5b8360020a9150848211156106db576106da6105e5565b5b50610740565b5060208310610133831016604e8410600b84101617156107165782820a905083811115610711576107106105e5565b5b610740565b6107238484846001610621565b9250905081840481111561073a576107396105e5565b5b81810290505b9392505050565b600060ff82169050919050565b600061075f8261026a565b915061076a83610747565b92506107977fffffffffffffffffffffffffffffffffffffffffffffffffffffffffffffffff8484610674565b905092915050565b60006107aa8261026a565b91506107b58361026a565b92508282026107c38161026a565b915082820484148315176107da576107d96105e5565b5b5092915050565b6114f5806107f06000396000f3fe608060405234801561001057600080fd5b50600436106100cf5760003560e01c80632e1a7d4d1161008c57806370a082311161006657806370a082311461022657806395d89b4114610256578063a9059cbb14610274578063dd62ed3e146102a4576100cf565b80632e1a7d4d146101d0578063313ce567146101ec5780636869b20e1461020a576100cf565b80630103c92b146100d457806306fdde0314610104578063095ea7b3146101225780631262c6a51461015257806318160ddd1461018257806323b872dd146101a0575b600080fd5b6100ee60048036038101906100e99190610e22565b6102d4565b6040516100fb9190610e68565b60405180910390f35b61010c6102ec565b6040516101199190610f13565b60405180910390f35b61013c60048036038101906101379190610f61565b61037a565b6040516101499190610fbc565b60405180910390f35b61016c60048036038101906101679190610e22565b61046c565b6040516101799190610e68565b60405180910390f35b61018a6104b5565b6040516101979190610e68565b60405180910390f35b6101ba60048036038101906101b59190610fd7565b6104bb565b6040516101c79190610fbc565b60405180910390f35b6101ea60048036038101906101e5919061102a565b6107ad565b005b6101f461096f565b6040516102019190611073565b60405180910390f35b610224600480360381019061021f919061102a565b610982565b005b610240600480360381019061023b9190610e22565b610ac2565b60405161024d9190610e68565b60405180910390f35b61025e610b0b565b60405161026b9190610f13565b60405180910390f35b61028e60048036038101906102899190610f61565b610b99565b60405161029b9190610fbc565b60405180910390f35b6102be60048036038101906102b9919061108e565b610d38565b6040516102cb9190610e68565b60405180910390f35b60076020528060005260406000206000915090505481565b600080546102f9906110fd565b80601f0160208091040260200160405190810160405280929190818152602001828054610325906110fd565b80156103725780601f1061034757610100808354040283529160200191610372565b820191906000526020600020905b81548152906001019060200180831161035557829003601f168201915b505050505081565b600081600660003373ffffffffffffffffffffffffffffffffffffffff1673ffffffffffffffffffffffffffffffffffffffff16815260200190815260200160002060008573ffffffffffffffffffffffffffffffffffffffff1673ffffffffffffffffffffffffffffffffffffffff168152602001908152602001600020819055508273ffffffffffffffffffffffffffffffffffffffff163373ffffffffffffffffffffffffffffffffffffffff167f8c5be1e5ebec7d5bd14f71427d1e84f3dd0314c0f7b2291e5b200ac8c7c3b9258460405161045a9190610e68565b60405180910390a36001905092915050565b6000600760008373ffffffffffffffffffffffffffffffffffffffff1673ffffffffffffffffffffffffffffffffffffffff168152602001908152602001600020549050919050565b60035481565b600081600560008673ffffffffffffffffffffffffffffffffffffffff1673ffffffffffffffffffffffffffffffffffffffff16815260200190815260200160002054101561053f576040517f08c379a0000000000000000000000000000000000000000000000000000000008152600401610536906111a0565b60405180910390fd5b81600660008673ffffffffffffffffffffffffffffffffffffffff1673ffffffffffffffffffffffffffffffffffffffff16815260200190815260200160002060003373ffffffffffffffffffffffffffffffffffffffff1673ffffffffffffffffffffffffffffffffffffffff1681526020019081526020016000205410156105fe576040517f08c379a00000000000000000000000000000000000000000000000000000000081526004016105f590611232565b60405180910390fd5b81600560008673ffffffffffffffffffffffffffffffffffffffff1673ffffffffffffffffffffffffffffffffffffffff168152602001908152602001600020600082825461064d9190611281565b9250508190555081600560008573ffffffffffffffffffffffffffffffffffffffff1673ffffffffffffffffffffffffffffffffffffffff16815260200190815260200160002060008282546106a391906112b5565b9250508190555081600660008673ffffffffffffffffffffffffffffffffffffffff1673ffffffffffffffffffffffffffffffffffffffff16815260200190815260200160002060003373ffffffffffffffffffffffffffffffffffffffff1673ffffffffffffffffffffffffffffffffffffffff16815260200190815260200160002060008282546107369190611281565b925050819055508273ffffffffffffffffffffffffffffffffffffffff168473ffffffffffffffffffffffffffffffffffffffff167fddf252ad1be2c89b69c2b068fc378daa952ba7f163c4a11628f55a4df523b3ef8460405161079a9190610e68565b60405180910390a3600190509392505050565b600081116107f0576040517f08c379a00000000000000000000000000000000000000000000000000000000081526004016107e79061135b565b60405180910390fd5b80600760003373ffffffffffffffffffffffffffffffffffffffff1673ffffffffffffffffffffffffffffffffffffffff168152602001908152602001600020541015610872576040517f08c379a0000000000000000000000000000000000000000000000000000000008152600401610869906113c7565b60405180910390fd5b80600760003373ffffffffffffffffffffffffffffffffffffffff1673ffffffffffffffffffffffffffffffffffffffff16815260200190815260200160002060008282546108c19190611281565b9250508190555080600560003373ffffffffffffffffffffffffffffffffffffffff1673ffffffffffffffffffffffffffffffffffffffff168152602001908152602001600020600082825461091791906112b5565b925050819055503373ffffffffffffffffffffffffffffffffffffffff167f884edad9ce6fa2440d8a54cc123490eb96d2768479d49ff9c7366125a9424364826040516109649190610e68565b60405180910390a250565b600260009054906101000a900460ff1681565b600081116109c5576040517f08c379a00000000000000000000000000000000000000000000000000000000081526004016109bc90611433565b60405180910390fd5b80600560003373ffffffffffffffffffffffffffffffffffffffff1673ffffffffffffffffffffffffffffffffffffffff1681526020019081526020016000206000828254610a149190611281565b9250508190555080600760003373ffffffffffffffffffffffffffffffffffffffff1673ffffffffffffffffffffffffffffffffffffffff1681526020019081526020016000206000828254610a6a91906112b5565b925050819055503373ffffffffffffffffffffffffffffffffffffffff167f5a3e025ad8b0ffc3940134b57218ebd90cfa0ed8a0ec0fdd53be572c480cf2cd82604051610ab79190610e68565b60405180910390a250565b6000600560008373ffffffffffffffffffffffffffffffffffffffff1673ffffffffffffffffffffffffffffffffffffffff168152602001908152602001600020549050919050565b60018054610b18906110fd565b80601f0160208091040260200160405190810160405280929190818152602001828054610b44906110fd565b8015610b915780601f10610b6657610100808354040283529160200191610b91565b820191906000526020600020905b815481529060010190602001808311610b7457829003601f168201915b505050505081565b600081600560003373ffffffffffffffffffffffffffffffffffffffff1673ffffffffffffffffffffffffffffffffffffffff168152602001908152602001600020541015610c1d576040517f08c379a0000000000000000000000000000000000000000000000000000000008152600401610c149061149f565b60405180910390fd5b81600560003373ffffffffffffffffffffffffffffffffffffffff1673ffffffffffffffffffffffffffffffffffffffff1681526020019081526020016000206000828254610c6c9190611281565b9250508190555081600560008573ffffffffffffffffffffffffffffffffffffffff1673ffffffffffffffffffffffffffffffffffffffff1681526020019081526020016000206000828254610cc291906112b5565b925050819055508273ffffffffffffffffffffffffffffffffffffffff163373ffffffffffffffffffffffffffffffffffffffff167fddf252ad1be2c89b69c2b068fc378daa952ba7f163c4a11628f55a4df523b3ef84604051610d269190610e68565b60405180910390a36001905092915050565b6000600660008473ffffffffffffffffffffffffffffffffffffffff1673ffffffffffffffffffffffffffffffffffffffff16815260200190815260200160002060008373ffffffffffffffffffffffffffffffffffffffff1673ffffffffffffffffffffffffffffffffffffffff16815260200190815260200160002054905092915050565b600080fd5b600073ffffffffffffffffffffffffffffffffffffffff82169050919050565b6000610def82610dc4565b9050919050565b610dff81610de4565b8114610e0a57600080fd5b50565b600081359050610e1c81610df6565b92915050565b600060208284031215610e3857610e37610dbf565b5b6000610e4684828501610e0d565b91505092915050565b6000819050919050565b610e6281610e4f565b82525050565b6000602082019050610e7d6000830184610e59565b92915050565b600081519050919050565b600082825260208201905092915050565b60005b83811015610ebd578082015181840152602081019050610ea2565b60008484015250505050565b6000601f19601f8301169050919050565b6000610ee582610e83565b610eef8185610e8e565b9350610eff818560208601610e9f565b610f0881610ec9565b840191505092915050565b60006020820190508181036000830152610f2d8184610eda565b905092915050565b610f3e81610e4f565b8114610f4957600080fd5b50565b600081359050610f5b81610f35565b92915050565b60008060408385031215610f7857610f77610dbf565b5b6000610f8685828601610e0d565b9250506020610f9785828601610f4c565b9150509250929050565b60008115159050919050565b610fb681610fa1565b82525050565b6000602082019050610fd16000830184610fad565b92915050565b600080600060608486031215610ff057610fef610dbf565b5b6000610ffe86828701610e0d565b935050602061100f86828701610e0d565b925050604061102086828701610f4c565b9150509250925092565b6000602082840312156110405761103f610dbf565b5b600061104e84828501610f4c565b91505092915050565b600060ff82169050919050565b61106d81611057565b82525050565b60006020820190506110886000830184611064565b92915050565b600080604083850312156110a5576110a4610dbf565b5b60006110b385828601610e0d565b92505060206110c485828601610e0d565b9150509250929050565b7f4e487b7100000000000000000000000000000000000000000000000000000000600052602260045260246000fd5b6000600282049050600182168061111557607f821691505b602082108103611128576111276110ce565b5b50919050565b7f45524332303a207472616e7366657220616d6f756e742065786365656473206260008201527f616c616e63650000000000000000000000000000000000000000000000000000602082015250565b600061118a602683610e8e565b91506111958261112e565b604082019050919050565b600060208201905081810360008301526111b98161117d565b9050919050565b7f45524332303a207472616e7366657220616d6f756e742065786365656473206160008201527f6c6c6f77616e6365000000000000000000000000000000000000000000000000602082015250565b600061121c602883610e8e565b9150611227826111c0565b604082019050919050565b6000602082019050818103600083015261124b8161120f565b9050919050565b7f4e487b7100000000000000000000000000000000000000000000000000000000600052601160045260246000fd5b600061128c82610e4f565b915061129783610e4f565b92508282039050818111156112af576112ae611252565b5b92915050565b60006112c082610e4f565b91506112cb83610e4f565b92508282019050808211156112e3576112e2611252565b5b92915050565b7f576974686472617720616d6f756e74206d75737420626520677265617465722060008201527f7468616e207a65726f0000000000000000000000000000000000000000000000602082015250565b6000611345602983610e8e565b9150611350826112e9565b604082019050919050565b6000602082019050818103600083015261137481611338565b9050919050565b7f496e73756666696369656e7420736176696e67732062616c616e636500000000600082015250565b60006113b1601c83610e8e565b91506113bc8261137b565b602082019050919050565b600060208201905081810360008301526113e0816113a4565b9050919050565b7f416d6f756e74206d7573742062652067726561746572207468616e207a65726f600082015250565b600061141d602083610e8e565b9150611428826113e7565b602082019050919050565b6000602082019050818103600083015261144c81611410565b9050919050565b7f45524332303a20696e7375666669656e742066756e6473000000000000000000600082015250565b6000611489601783610e8e565b915061149482611453565b602082019050919050565b600060208201905081810360008301526114b88161147c565b905091905056fea26469706673582212209c95ad77361859df4de04f09ad7131ecb4ca333f31c5b3066d4041b1de35e13564736f6c634300081c0033",
  "linkReferences": {},
  "deployedLinkReferences": {}
}